{
  "_format": "hh-sol-artifact-1",
  "contractName": "ValidusStaking",
  "sourceName": "contracts/ValidusStaking.sol",
  "abi": [
    {
      "anonymous": false,
      "inputs": [
        {
          "indexed": true,
          "internalType": "address",
          "name": "user",
          "type": "address"
        },
        {
          "indexed": false,
          "internalType": "uint256",
          "name": "amount",
          "type": "uint256"
        }
      ],
      "name": "Burned",
      "type": "event"
    },
    {
      "anonymous": false,
      "inputs": [
        {
          "indexed": true,
          "internalType": "address",
          "name": "user",
          "type": "address"
        },
        {
          "indexed": false,
          "internalType": "uint256",
          "name": "amount",
          "type": "uint256"
        }
      ],
      "name": "Slashed",
      "type": "event"
    },
    {
      "anonymous": false,
      "inputs": [
        {
          "indexed": true,
          "internalType": "address",
          "name": "user",
          "type": "address"
        },
        {
          "indexed": false,
          "internalType": "uint256",
          "name": "amount",
          "type": "uint256"
        }
      ],
      "name": "Staked",
      "type": "event"
    },
    {
      "anonymous": false,
      "inputs": [
        {
          "indexed": true,
          "internalType": "address",
          "name": "user",
          "type": "address"
        },
        {
          "indexed": false,
          "internalType": "uint256",
          "name": "amount",
          "type": "uint256"
        }
      ],
      "name": "TopUp",
      "type": "event"
    },
    {
      "inputs": [
        {
          "internalType": "uint256",
          "name": "amount",
          "type": "uint256"
        }
      ],
      "name": "burn",
      "outputs": [],
      "stateMutability": "nonpayable",
      "type": "function"
    },
    {
      "inputs": [
        {
          "internalType": "address",
          "name": "",
          "type": "address"
        }
      ],
      "name": "credits",
      "outputs": [
        {
          "internalType": "uint256",
          "name": "",
          "type": "uint256"
        }
      ],
      "stateMutability": "view",
      "type": "function"
    },
    {
      "inputs": [
        {
          "internalType": "address",
          "name": "user",
          "type": "address"
        }
      ],
      "name": "getCredits",
      "outputs": [
        {
          "internalType": "uint256",
          "name": "",
          "type": "uint256"
        }
      ],
      "stateMutability": "view",
      "type": "function"
    },
    {
      "inputs": [
        {
          "internalType": "address",
          "name": "user",
          "type": "address"
        }
      ],
      "name": "getStake",
      "outputs": [
        {
          "internalType": "uint256",
          "name": "",
          "type": "uint256"
        }
      ],
      "stateMutability": "view",
      "type": "function"
    },
    {
      "inputs": [
        {
          "internalType": "address",
          "name": "user",
          "type": "address"
        },
        {
          "internalType": "uint256",
          "name": "amount",
          "type": "uint256"
        }
      ],
      "name": "slash",
      "outputs": [],
      "stateMutability": "nonpayable",
      "type": "function"
    },
    {
      "inputs": [
        {
          "internalType": "address",
          "name": "user",
          "type": "address"
        }
      ],
      "name": "slashAll",
      "outputs": [],
      "stateMutability": "nonpayable",
      "type": "function"
    },
    {
      "inputs": [],
      "name": "stake",
      "outputs": [],
      "stateMutability": "payable",
      "type": "function"
    },
    {
      "inputs": [
        {
          "internalType": "address",
          "name": "",
          "type": "address"
        }
      ],
      "name": "stakes",
      "outputs": [
        {
          "internalType": "uint256",
          "name": "",
          "type": "uint256"
        }
      ],
      "stateMutability": "view",
      "type": "function"
    },
    {
      "inputs": [],
      "name": "topUp",
      "outputs": [],
      "stateMutability": "payable",
      "type": "function"
    }
  ],
  "bytecode": "0x608060405234801561001057600080fd5b50610bfa806100206000396000f3fe6080604052600436106100865760003560e01c80633b66e9f6116100595780633b66e9f61461012457806342966c68146101615780637a7664601461018a578063dc29f1de146101c7578063fe5ff468146101d157610086565b806302fb4d851461008b57806316934fc4146100b457806336550899146100f15780633a4b66f11461011a575b600080fd5b34801561009757600080fd5b506100b260048036038101906100ad91906108a8565b61020e565b005b3480156100c057600080fd5b506100db60048036038101906100d691906108e8565b610338565b6040516100e89190610924565b60405180910390f35b3480156100fd57600080fd5b50610118600480360381019061011391906108e8565b610350565b005b61012261046e565b005b34801561013057600080fd5b5061014b600480360381019061014691906108e8565b610557565b6040516101589190610924565b60405180910390f35b34801561016d57600080fd5b506101886004803603810190610183919061093f565b61059f565b005b34801561019657600080fd5b506101b160048036038101906101ac91906108e8565b6106c6565b6040516101be9190610924565b60405180910390f35b6101cf61070f565b005b3480156101dd57600080fd5b506101f860048036038101906101f391906108e8565b6107f7565b6040516102059190610924565b60405180910390f35b80600160008473ffffffffffffffffffffffffffffffffffffffff1673ffffffffffffffffffffffffffffffffffffffff168152602001908152602001600020541015610290576040517f08c379a0000000000000000000000000000000000000000000000000000000008152600401610287906109c9565b60405180910390fd5b80600160008473ffffffffffffffffffffffffffffffffffffffff1673ffffffffffffffffffffffffffffffffffffffff16815260200190815260200160002060008282546102df9190610a18565b925050819055508173ffffffffffffffffffffffffffffffffffffffff167f4ed05e9673c26d2ed44f7ef6a7f2942df0ee3b5e1e17db4b99f9dcd261a339cd8260405161032c9190610924565b60405180910390a25050565b60016020528060005260406000206000915090505481565b6000600160008373ffffffffffffffffffffffffffffffffffffffff1673ffffffffffffffffffffffffffffffffffffffff168152602001908152602001600020549050600081116103d7576040517f08c379a00000000000000000000000000000000000000000000000000000000081526004016103ce90610a98565b60405180910390fd5b6000600160008473ffffffffffffffffffffffffffffffffffffffff1673ffffffffffffffffffffffffffffffffffffffff168152602001908152602001600020819055508173ffffffffffffffffffffffffffffffffffffffff167f4ed05e9673c26d2ed44f7ef6a7f2942df0ee3b5e1e17db4b99f9dcd261a339cd826040516104629190610924565b60405180910390a25050565b600034116104b1576040517f08c379a00000000000000000000000000000000000000000000000000000000081526004016104a890610b04565b60405180910390fd5b34600160003373ffffffffffffffffffffffffffffffffffffffff1673ffffffffffffffffffffffffffffffffffffffff16815260200190815260200160002060008282546105009190610b24565b925050819055503373ffffffffffffffffffffffffffffffffffffffff167f9e71bc8eea02a63969f509818f2dafb9254532904319f9dbda79b67bd34a5f3d3460405161054d9190610924565b60405180910390a2565b60008060008373ffffffffffffffffffffffffffffffffffffffff1673ffffffffffffffffffffffffffffffffffffffff168152602001908152602001600020549050919050565b806000803373ffffffffffffffffffffffffffffffffffffffff1673ffffffffffffffffffffffffffffffffffffffff168152602001908152602001600020541015610620576040517f08c379a000000000000000000000000000000000000000000000000000000000815260040161061790610ba4565b60405180910390fd5b806000803373ffffffffffffffffffffffffffffffffffffffff1673ffffffffffffffffffffffffffffffffffffffff168152602001908152602001600020600082825461066e9190610a18565b925050819055503373ffffffffffffffffffffffffffffffffffffffff167f696de425f79f4a40bc6d2122ca50507f0efbeabbff86a84871b7196ab8ea8df7826040516106bb9190610924565b60405180910390a250565b6000600160008373ffffffffffffffffffffffffffffffffffffffff1673ffffffffffffffffffffffffffffffffffffffff168152602001908152602001600020549050919050565b60003411610752576040517f08c379a000000000000000000000000000000000000000000000000000000000815260040161074990610b04565b60405180910390fd5b346000803373ffffffffffffffffffffffffffffffffffffffff1673ffffffffffffffffffffffffffffffffffffffff16815260200190815260200160002060008282546107a09190610b24565b925050819055503373ffffffffffffffffffffffffffffffffffffffff167f29e6701fa948667bae25d3e2ef7966f2a11754e98aa0dc52c55133430caee2df346040516107ed9190610924565b60405180910390a2565b60006020528060005260406000206000915090505481565b600080fd5b600073ffffffffffffffffffffffffffffffffffffffff82169050919050565b600061083f82610814565b9050919050565b61084f81610834565b811461085a57600080fd5b50565b60008135905061086c81610846565b92915050565b6000819050919050565b61088581610872565b811461089057600080fd5b50565b6000813590506108a28161087c565b92915050565b600080604083850312156108bf576108be61080f565b5b60006108cd8582860161085d565b92505060206108de85828601610893565b9150509250929050565b6000602082840312156108fe576108fd61080f565b5b600061090c8482850161085d565b91505092915050565b61091e81610872565b82525050565b60006020820190506109396000830184610915565b92915050565b6000602082840312156109555761095461080f565b5b600061096384828501610893565b91505092915050565b600082825260208201905092915050565b7f4e6f7420656e6f756768207374616b6500000000000000000000000000000000600082015250565b60006109b360108361096c565b91506109be8261097d565b602082019050919050565b600060208201905081810360008301526109e2816109a6565b9050919050565b7f4e487b7100000000000000000000000000000000000000000000000000000000600052601160045260246000fd5b6000610a2382610872565b9150610a2e83610872565b9250828203905081811115610a4657610a456109e9565b5b92915050565b7f4e6f7468696e6720746f20736c61736800000000000000000000000000000000600082015250565b6000610a8260108361096c565b9150610a8d82610a4c565b602082019050919050565b60006020820190508181036000830152610ab181610a75565b9050919050565b7f53656e6420744443414900000000000000000000000000000000000000000000600082015250565b6000610aee600a8361096c565b9150610af982610ab8565b602082019050919050565b60006020820190508181036000830152610b1d81610ae1565b9050919050565b6000610b2f82610872565b9150610b3a83610872565b9250828201905080821115610b5257610b516109e9565b5b92915050565b7f4e6f7420656e6f75676820637265646974730000000000000000000000000000600082015250565b6000610b8e60128361096c565b9150610b9982610b58565b602082019050919050565b60006020820190508181036000830152610bbd81610b81565b905091905056fea264697066735822122077ad4a6d066b314c9c4462d13438c8026afe2e6373c805c3b1a29d884cf142f164736f6c63430008140033",
  "linkReferences": {},
  "deployedLinkReferences": {}
}