{
  "_format": "hh-sol-artifact-1",
  "contractName": "ValidusStaking",
  "sourceName": "contracts/ValidusStaking.sol",
  "abi": [
    {
      "anonymous": false,
      "inputs": [
        {
          "indexed": true,
          "internalType": "address",
          "name": "user",
          "type": "address"
        },
        {
          "indexed": false,
          "internalType": "uint256",
          "name": "amount",
          "type": "uint256"
        }
      ],
      "name": "Slashed",
      "type": "event"
    },
    {
      "anonymous": false,
      "inputs": [
        {
          "indexed": true,
          "internalType": "address",
          "name": "user",
          "type": "address"
        },
        {
          "indexed": false,
          "internalType": "uint256",
          "name": "amount",
          "type": "uint256"
        }
      ],
      "name": "Staked",
      "type": "event"
    },
    {
      "anonymous": false,
      "inputs": [
        {
          "indexed": true,
          "internalType": "address",
          "name": "user",
          "type": "address"
        },
        {
          "indexed": false,
          "internalType": "uint256",
          "name": "amount",
          "type": "uint256"
        }
      ],
      "name": "TopUp",
      "type": "event"
    },
    {
      "inputs": [
        {
          "internalType": "address",
          "name": "",
          "type": "address"
        }
      ],
      "name": "credits",
      "outputs": [
        {
          "internalType": "uint256",
          "name": "",
          "type": "uint256"
        }
      ],
      "stateMutability": "view",
      "type": "function"
    },
    {
      "inputs": [
        {
          "internalType": "address",
          "name": "user",
          "type": "address"
        }
      ],
      "name": "getCredits",
      "outputs": [
        {
          "internalType": "uint256",
          "name": "",
          "type": "uint256"
        }
      ],
      "stateMutability": "view",
      "type": "function"
    },
    {
      "inputs": [
        {
          "internalType": "address",
          "name": "user",
          "type": "address"
        }
      ],
      "name": "getStake",
      "outputs": [
        {
          "internalType": "uint256",
          "name": "",
          "type": "uint256"
        }
      ],
      "stateMutability": "view",
      "type": "function"
    },
    {
      "inputs": [
        {
          "internalType": "address",
          "name": "user",
          "type": "address"
        },
        {
          "internalType": "uint256",
          "name": "amount",
          "type": "uint256"
        }
      ],
      "name": "slash",
      "outputs": [],
      "stateMutability": "nonpayable",
      "type": "function"
    },
    {
      "inputs": [
        {
          "internalType": "address",
          "name": "user",
          "type": "address"
        }
      ],
      "name": "slashAll",
      "outputs": [],
      "stateMutability": "nonpayable",
      "type": "function"
    },
    {
      "inputs": [],
      "name": "stake",
      "outputs": [],
      "stateMutability": "payable",
      "type": "function"
    },
    {
      "inputs": [
        {
          "internalType": "address",
          "name": "",
          "type": "address"
        }
      ],
      "name": "stakes",
      "outputs": [
        {
          "internalType": "uint256",
          "name": "",
          "type": "uint256"
        }
      ],
      "stateMutability": "view",
      "type": "function"
    },
    {
      "inputs": [],
      "name": "topUp",
      "outputs": [],
      "stateMutability": "payable",
      "type": "function"
    }
  ],
  "bytecode": "0x608060405234801561001057600080fd5b50610a06806100206000396000f3fe60806040526004361061007b5760003560e01c80633b66e9f61161004e5780633b66e9f6146101195780637a76646014610156578063dc29f1de14610193578063fe5ff4681461019d5761007b565b806302fb4d851461008057806316934fc4146100a957806336550899146100e65780633a4b66f11461010f575b600080fd5b34801561008c57600080fd5b506100a760048036038101906100a2919061074d565b6101da565b005b3480156100b557600080fd5b506100d060048036038101906100cb919061078d565b610304565b6040516100dd91906107c9565b60405180910390f35b3480156100f257600080fd5b5061010d6004803603810190610108919061078d565b61031c565b005b61011761043a565b005b34801561012557600080fd5b50610140600480360381019061013b919061078d565b610523565b60405161014d91906107c9565b60405180910390f35b34801561016257600080fd5b5061017d6004803603810190610178919061078d565b61056b565b60405161018a91906107c9565b60405180910390f35b61019b6105b4565b005b3480156101a957600080fd5b506101c460048036038101906101bf919061078d565b61069c565b6040516101d191906107c9565b60405180910390f35b80600160008473ffffffffffffffffffffffffffffffffffffffff1673ffffffffffffffffffffffffffffffffffffffff16815260200190815260200160002054101561025c576040517f08c379a000000000000000000000000000000000000000000000000000000000815260040161025390610841565b60405180910390fd5b80600160008473ffffffffffffffffffffffffffffffffffffffff1673ffffffffffffffffffffffffffffffffffffffff16815260200190815260200160002060008282546102ab9190610890565b925050819055508173ffffffffffffffffffffffffffffffffffffffff167f4ed05e9673c26d2ed44f7ef6a7f2942df0ee3b5e1e17db4b99f9dcd261a339cd826040516102f891906107c9565b60405180910390a25050565b60016020528060005260406000206000915090505481565b6000600160008373ffffffffffffffffffffffffffffffffffffffff1673ffffffffffffffffffffffffffffffffffffffff168152602001908152602001600020549050600081116103a3576040517f08c379a000000000000000000000000000000000000000000000000000000000815260040161039a90610910565b60405180910390fd5b6000600160008473ffffffffffffffffffffffffffffffffffffffff1673ffffffffffffffffffffffffffffffffffffffff168152602001908152602001600020819055508173ffffffffffffffffffffffffffffffffffffffff167f4ed05e9673c26d2ed44f7ef6a7f2942df0ee3b5e1e17db4b99f9dcd261a339cd8260405161042e91906107c9565b60405180910390a25050565b6000341161047d576040517f08c379a00000000000000000000000000000000000000000000000000000000081526004016104749061097c565b60405180910390fd5b34600160003373ffffffffffffffffffffffffffffffffffffffff1673ffffffffffffffffffffffffffffffffffffffff16815260200190815260200160002060008282546104cc919061099c565b925050819055503373ffffffffffffffffffffffffffffffffffffffff167f9e71bc8eea02a63969f509818f2dafb9254532904319f9dbda79b67bd34a5f3d3460405161051991906107c9565b60405180910390a2565b60008060008373ffffffffffffffffffffffffffffffffffffffff1673ffffffffffffffffffffffffffffffffffffffff168152602001908152602001600020549050919050565b6000600160008373ffffffffffffffffffffffffffffffffffffffff1673ffffffffffffffffffffffffffffffffffffffff168152602001908152602001600020549050919050565b600034116105f7576040517f08c379a00000000000000000000000000000000000000000000000000000000081526004016105ee9061097c565b60405180910390fd5b346000803373ffffffffffffffffffffffffffffffffffffffff1673ffffffffffffffffffffffffffffffffffffffff1681526020019081526020016000206000828254610645919061099c565b925050819055503373ffffffffffffffffffffffffffffffffffffffff167f29e6701fa948667bae25d3e2ef7966f2a11754e98aa0dc52c55133430caee2df3460405161069291906107c9565b60405180910390a2565b60006020528060005260406000206000915090505481565b600080fd5b600073ffffffffffffffffffffffffffffffffffffffff82169050919050565b60006106e4826106b9565b9050919050565b6106f4816106d9565b81146106ff57600080fd5b50565b600081359050610711816106eb565b92915050565b6000819050919050565b61072a81610717565b811461073557600080fd5b50565b60008135905061074781610721565b92915050565b60008060408385031215610764576107636106b4565b5b600061077285828601610702565b925050602061078385828601610738565b9150509250929050565b6000602082840312156107a3576107a26106b4565b5b60006107b184828501610702565b91505092915050565b6107c381610717565b82525050565b60006020820190506107de60008301846107ba565b92915050565b600082825260208201905092915050565b7f4e6f7420656e6f756768207374616b6500000000000000000000000000000000600082015250565b600061082b6010836107e4565b9150610836826107f5565b602082019050919050565b6000602082019050818103600083015261085a8161081e565b9050919050565b7f4e487b7100000000000000000000000000000000000000000000000000000000600052601160045260246000fd5b600061089b82610717565b91506108a683610717565b92508282039050818111156108be576108bd610861565b5b92915050565b7f4e6f7468696e6720746f20736c61736800000000000000000000000000000000600082015250565b60006108fa6010836107e4565b9150610905826108c4565b602082019050919050565b60006020820190508181036000830152610929816108ed565b9050919050565b7f53656e6420744443414900000000000000000000000000000000000000000000600082015250565b6000610966600a836107e4565b915061097182610930565b602082019050919050565b6000602082019050818103600083015261099581610959565b9050919050565b60006109a782610717565b91506109b283610717565b92508282019050808211156109ca576109c9610861565b5b9291505056fea2646970667358221220a0d2273722b22f3e3838f403499294ebe84891fc3a566762af9e10deca3df99064736f6c63430008140033",
  "linkReferences": {},
  "deployedLinkReferences": {}
}